:1000000010308A0000280000FF00030E8301A100C9
:100010000A08A0008A010408A2007708A300780853
:10002000A4007908A5007A08A6007B08A70083131E
:1000300083128B1E1D280B193028220884002308E8
:10004000F7002408F8002508F9002608FA00270818
:10005000FB0020088A00210E8300FF0E7F0E09009E
:100060008A110A123C280A108A100A1182073034B9
:100070003034303430340034013083160317C9076C
:1000800049081D3C03185F28FF3A031D4B28480808
:10009000833C03185F288430C8021E30031C1F30C5
:1000A000C90283120313C808031D5D2847083A3CA0
:1000B000031C5D28C70A0319C80A83160317831295
:1000C00003130B118A110A121D2861308400831753
:1000D0000008031978280230F800F701F70B6E28A2
:1000E000F80B6D289730F700F70B7428800B6B28FE
:1000F0008A110A16B4282E132E088316870083123D
:1001000007130830F80084280000F8179728F81320
:100110000317E90C031303180717031C07137817B9
:1001200097287813F80B88289528000007173F3088
:100130008400840B99280000F81B8728781B9128DD
:100140000034AE172E08831687008312871BA6285B
:100150000830F7000317E001F717BE28F713BE2891
:1001600003100313871B03140317E00C7717BE2833
:100170007713F70BB0286008F800C9283F30F71B49
:100180001130F800F80BC228F71BAE28771BB828EF
:10019000B02803130034831603172E0803193D29D2
:1001A000B600320803193D29B6070318DE287F3050
:1001B000B602031C3D2903193D29E2288130B60708
:1001C00003183D293608F700F801F901FA012F0854
:1001D000BA00BA173008B9003108B8001830B600B4
:1001E000B701381C0B293508FA07031CFD28F90A4A
:1001F000031DFD28F80A0319B7173408F907031C73
:100200000429F80A0319B7173308B000B0173008EB
:10021000F8070318B717B70DF80CF90CFA0CBA0C5D
:10022000B90CB80C0310B60BF0280130F70703180F
:100230003D29F81B2229BA0DFA0DF90DF80DF70327
:1002400003193D29BA1F3329FA0A031D3329F90A74
:10025000031D3329F80A031D3329F80CF90CFA0C95
:10026000F70A03193D292F08B7003308B706B71F4F
:100270003B29F8174129F8134129F701F801F90141
:10028000FA018312031300348E30F700831603172C
:100290002F08F8002E08F900FA01F808031D5A2962
:1002A0007908F800F9010830F702F808031D5A2907
:1002B000F70162290310F81B6129F90DF80DF70306
:1002C0005A29F8138312031300348030831C6D29DC
:1002D00083160317B5068312031383160317BA0197
:1002E000BB013108B9003508B906300803195C2A8A
:1002F000B800F70034080319652AB8020319012A67
:10030000031CBF293508BE00BE173608BD003708DC
:10031000BC00BB010310BE0CBD0CBC0CBB0CB80B6D
:100320008929B91F96293A14792A3A1038103A16B1
:10033000B330840083178E2A3A12B91BA929381CBE
:10034000B429BE0CBD0CBC0CBB0CF70A0319742AF3
:10035000B429BE1BB7290310BB0DBC0DBD0DBE0DCE
:10036000F7030319742AA9293A17212A3A133108E5
:10037000B900B91FBD29BE176D2ABE136D2A3408F6
:10038000B800F7003008B8023108BE00BE173208C6
:10039000BD003308BC00BB010310BE0CBD0CBC0C7F
:1003A000BB0CB80BCB29B91FD829BA14792ABA10BB
:1003B0003810BA16B730840083178E2ABA12B91BC8
:1003C000EB29381CF629BE0CBD0CBC0CBB0CF70A83
:1003D0000319742AF629BE1BF9290310BB0DBC0DA5
:1003E000BD0DBE0DF7030319742AEB29BA17212A94
:1003F000BA133508B900B91FFF29BE176D2ABE13FD
:100400006D2A3508BE00BE173608BD003708BC008F
:10041000B91F0E2ABE133A15792A3A11BB013810BA
:10042000B330840083178E2AB91B372A3108B900EC
:10043000381C212ABE0CBD0CBC0CBB0CF70A0319DE
:10044000742ABB1F322ABC0A031D322ABD0A031DAF
:10045000322ABE0A031D322ABE0CBD0CBC0CF70AA0
:100460000319742A3A1BB629BA1BF829562A803078
:10047000BE06BE1F3F2A792A3508B9004C2A31082A
:10048000B900BE08031D4C2ABD08031D4C2ABC0838
:10049000031D4C2AF7016D2ABE1B562A0310BB0D03
:1004A000BC0DBD0DBE0DF70B4C2A742AB91F5A2A7C
:1004B000BE176D2ABE136D2A3408F7003508BE003A
:1004C0003608BD003708BC006D2A3008F700310837
:1004D000BE003208BD003308BC003E08F8003D08ED
:1004E000F9003C08FA00AC2AF701F801F901FA0119
:1004F000AC2ABB01BC09BD09BE09BB09BB0A031D6F
:10050000872ABC0A031D872ABD0A0319BE0A3A18A6
:100510009529BA18D7293A190D2A3C2A0008BC0790
:10052000031C982ABD0A031D982ABE0A0319381411
:1005300084030008BD07031CA02ABE0A031938144F
:1005400084030008801F803ABE07031838143A1A43
:100550009C29BA1ADE29142A831203130034831645
:1005600003172A080319762BB6002E080319762BD9
:10057000B602031CC02A7F30B6070318762BC62AA2
:100580008130B602031C762B0319762B3608F70050
:10059000F801F901FA01B5012B08B400B4172C08D1
:1005A000B3002D08B2001930B6003108B2020318AA
:1005B000E92A0130B3020318E92AB4020318E92A30
:1005C000B5020318E92AB50AB40AB30A3108B2071A
:1005D0001B2B3008B3020318042B0130B40203189C
:1005E000042BB5020318042BB50AB40A3008B3076C
:1005F0003108B207031C1B2BB30A031D1B2BB40AC3
:10060000031D1B2BB50A1B2B2F088038B4020318BF
:100610001A2B0130B50203181A2BB50A2F0880389F
:10062000B4073008B307031CF82AB40A031DF82ADC
:10063000B50AF82A7A14B60B1E2B292B0310B20D1B
:10064000B30DB40DB50D0310FA0DF90DF80DB70D7E
:10065000D52A371C312B0310F80CF90CFA0CB70C07
:10066000342BF7030319762BB71B5D2B0310B20D48
:10067000B30DB40DB50D3108B2020318492B01308A
:10068000B3020318492BB4020318492BB502031C0B
:100690006C2B3008B3020318542B0130B40203183A
:1006A000542BB502031C6C2B2F088038B40203189E
:1006B0005D2B0130B502031C6C2BFA0A031D6C2B59
:1006C000F90A031D6C2BF80A031D6C2BF70A03199A
:1006D000762BF80CF90CFA0C2B08B6002F08B6068E
:1006E000B61F742BF8177A2BF8137A2BF701F80141
:1006F000F901FA018312031300347F300317E2007B
:10070000E301E401E501E601E701E801E901EA01AD
:10071000EC016C08EC0A60078400831361188317EE
:100720000008EB006B082F3C03189A2B6B08393C30
:100730000318A62B6B082B3C0319A62B6B082D3C2A
:100740000319A62B6B082E3C031DC52C6B082D3CF2
:10075000031DB52B0130EA006C08EC0A6007840029
:100760008313611883170008EB006B082B3C031DF3
:10077000C22B6C08EC0A600784008313611883178E
:100780000008EB006B082F3C03183B2C6B08393C2E
:10079000031C3B2C8316B101B0012030AF00823026
:1007A000AE00831269088316B500831268088316A9
:1007B000B400831267088316B30083126608831699
:1007C000B20083120313CB2077088316031790001F
:1007D00078089100790892007A089300AF0183129B
:1007E0006B088316AE008312031344218310831613
:1007F00003171308B3001208B2001108B100100863
:10080000B0007A08B7007908B6007808B500770814
:10081000B40083120313652177088316031794002D
:1008200078089500790896007A08970083141708CD
:10083000B3001608B2001508B1001408B000B701E3
:10084000B6014030B5008430B40083120313652133
:100850007A080317E9007908E8007808E7007708C4
:10086000E6006C08EC0A60078400831361188317A4
:100870000008EB00C22B6B082E3C031DC52C6C0836
:10088000EC0A600784008313611883170008EB00EB
:100890006B082F3C0318C52C6B08393C031CC52C76
:1008A00065088316B100831264088316B0008312B2
:1008B00063088316AF00831262088316AE00B50189
:1008C000B4012030B3008230B20083120313CB2076
:1008D0007A080317E5007908E4007808E300770850
:1008E000E20030306B028316AF01AE0083120313B7
:1008F00044217A0883160317AD007908AC00780804
:10090000AB007708AA00831265088316B100831232
:1009100064088316B000831263088316AF00831245
:1009200062088316AE0083120313AF2283100317ED
:1009300069088316B300831268088316B200831215
:1009400067088316B100831266088316B0007A0820
:10095000B7007908B6007808B5007708B4008312AC
:10096000031365217A080317E9007908E80078087D
:10097000E7007708E6006C08EC0A60078400831340
:10098000611883170008EB00482C6A0BEA2C8316C9
:10099000B101B0018030AF007F30AE008312690832
:1009A0008316B500831268088316B40083126708A3
:1009B0008316B300831266088316B20083120313F2
:1009C000CB207A080317E9007908E8007808E700E7
:1009D0007708E6006608F7006708F8006808F9007D
:1009E0006908FA0003130034831603172B08B200BA
:1009F0002F08B206B21F012D03110310AB1B031405
:100A0000342D2B08B2002E08B3002A08B3020319B4
:100A10000F2DB21F342D0308013A8300342D2F0807
:100A2000B3002B08B30203191B2DB21F342D03088A
:100A3000013A8300342D3008B3002C08B3020319A7
:100A4000272DB21F342D0308013A8300342D3108BD
:100A5000B3002D08B3020319332DB21F342D030840
:100A6000013A8300342D03108312031300348E30B7
:100A7000F700831603172A08F7022B08F9002C0841
:100A8000F800F917F7080319502D0310F908031D92
:100A90004C2DF8080319502DF90CF80CF70B452DC7
:100AA000AB1F572DF809F909F80A0319F90A83123F
:100AB000031300347F3083160317900091019201D5
:100AC00093017E309A0080309B009C019D017A301A
:100AD0009E002A309F00AA30A000A330A1007530EC
:100AE000A200B630A3000930A4009C30A5006F30EE
:100AF000A6004F30A700B430A8000B30A900831225
:100B000067088316AD00831266088316AC00831253
:100B100065088316AB00831264088316AA00B1012E
:100B2000B001AF01AE0183120313F424031C9D2D09
:100B300003176508803AE500031303176708831657
:100B4000AD00831266088316AC0083126508831615
:100B5000AB00831264088316AA00DB30B1000F30AB
:100B6000B0004930AF007F30AE0083120313AF22D4
:100B70007A0883160317AD007908AC007808AB003B
:100B80007708AA0083120313372578088316031702
:100B90009400831267088316AD00831266088316DB
:100BA000AC00831265088316AB00831264088316B9
:100BB000AA00DB30B1000F30B0004930AF007F3009
:100BC000AE0083120313AF22770883160317AA001F
:100BD0007808AB007908AC007A08AD00AF011408C2
:100BE000AE008312031344218314831603172D08C8
:100BF000B3002C08B2002B08B1002A08B0007A0814
:100C0000B7007908B6007808B5007708B4008312F9
:100C1000031365217A088316031799007908980051
:100C20007808970077089600033094059408031914
:100C30001D2E1408023C031D3B2E1908B100180894
:100C4000B0001708AF001608AE00DB30B5000F305B
:100C5000B4004930B3007F30B20083120313CB20BD
:100C60007A080317EF007908EE007808ED0077089E
:100C7000EC00AB2E8316140B752E8314B301B20156
:100C8000B1017F30B0001908B7001808B600170886
:100C9000B5001608B4008312031365217708831684
:100CA0000317AA007808AB007908AC007A08AD00F9
:100CB000B1002C08B0002B08AF002A08AE00DB30D2
:100CC000B5000F30B4004930B3007F30B20083125A
:100CD0000313CB207A080317EF007908EE00780899
:100CE000ED007708EC00AB2E831683141908B300CF
:100CF0001808B2001708B1001608B000B701B60115
:100D0000B5017F30B4008312031365217708831681
:100D10000317AA007808AB007908AC007A08AD0088
:100D2000B1002C08B0002B08AF002A08AE00DB3061
:100D3000B5000F30B4004930B3007F30B2008312E9
:100D40000313CB207A080317EF007908EE00780828
:100D5000ED007708EC00EB01EA01E9017F30E800E3
:100D60006F088316B10083126E088316B0008312D9
:100D70006D088316AF0083126C088316AE008312D1
:100D80006F088316B50083126E088316B4008312B1
:100D90006D088316B30083126C088316B2008312A9
:100DA0000313CB207A080317EF007908EE007808C8
:100DB000ED007708EC00831695011508033C031C31
:100DC000632F1308B1001208B0001108AF0010081B
:100DD000AE0083126F088316B50083126E08831667
:100DE000B40083126D088316B30083126C08831657
:100DF000B20083120313CB207A08831603179300E3
:100E0000790892007808910077089000150DF70096
:100E1000F70DFC30F70577089A3E84008317000829
:100E2000AA00840A0008AB00840A0008AC00840A07
:100E30000008AD00B1002C08B0002B08AF002A0854
:100E4000AE001308B5001208B4001108B300100872
:100E5000B20083120313CB2083160317AF010408DB
:100E6000AE002F10831B2F14831083126B08831680
:100E7000B30083126A088316B200831269088316CE
:100E8000B100831268088316B0007A08B7007908A9
:100E9000B6007808B5007708B40083120313652103
:100EA000831603172E08840083132F1883177A08DC
:100EB0008312EB007908EA007808E9007708E80077
:100EC0008316950ADD2E1408023C0319692F140BB2
:100ED0006E2F83126908803AE9008316831268082E
:100EE000F7006908F8006A08F9006B08FA000313B4
:100EF000003403176408B63CE400FA016508E80012
:100F0000E5170310E50CE60CE70CFA0CF90CF80CED
:100F1000F70CE40B812FE81F982FF709F809F9095E
:100F2000FA09F70A0319F80A0319F90A0319FA0A60
:100F3000031300342030831603179C009801990195
:100F40009A019B011308FA001208F9001108F80031
:100F50001008F7000310771CBB2F1408980715081A
:100F60000318150F990716080318160F9A07170884
:100F70000318170F9B079B0C9A0C990C980CFA0CF2
:100F8000F90CF80CF70C9C0BAA2F831203130034F6
:100F9000B630F700FA01F901F80103176A10E91FEA
:100FA000DF2F6A14E609E709E809E909E60A031DE3
:100FB000DF2FE70A031DDF2FE80A0319E90A660895
:100FC000670468046904031DE72FF701F62F031077
:100FD000F81BF32FE60DE70DE80DE90DFA0DF90DFD
:100FE000F80DF70BE72FF8136A18F81703130034FE
:1010000003176D088316AD0083126C088316AC00BD
:1010100083126B088316AB0083126A088316AA003A
:10102000B101B001AF01AE018A1183120313F424A0
:101030008A1503181D28031D2228F701F801F9015C
:10104000FA01D12803176D088316930083126C08E8
:101050008316920083126B088316910083126A082C
:101060008316900001308312EF009030EE006F087D
:10107000FA006E08831698007A08990083126E08A9
:10108000840083136F188317000883169B019A004E
:101090007F301A079C001B089D0003189D0A03104F
:1010A0001D0CFA001C0CF9009E0018088400831324
:1010B000191883171E08800013089700120896005D
:1010C000110895001008940083126D088316AD0076
:1010D00083126C088316AC0083126B088316AB0076
:1010E00083126A088316AA001308B1001208B00020
:1010F0001108AF001008AE008A1183120313AF224B
:101100008A158310831603171308B3001208B20060
:101110001108B1001008B0007A08B7007908B600CD
:101120007808B5007708B4008A118312031365218B
:101130008A157A08831603179300790892007808B5
:1011400091007708900083126E08840083136F1853
:101150008317800383161708AD001608AC00150826
:10116000AB001408AA001308B1001208B00011085F
:10117000AF001008AE008A1183120313F4248A15FD
:101180000319C528831603175C2883160317140850
:10119000F7001508F8001608F9001708FA0083127E
:1011A00003138A110A169D2E0317E8010408E700AD
:1011B0006810831B6814E11FE528E717671EE70A1C
:1011C000E009E109E00A0319E10A610EF038E300E1
:1011D000E307E23EE400323EE60061080F39E4072F
:1011E000E407E607E93EE500E507E507600E0F398D
:1011F000E507E607E50DE60DE609E60D60080F399F
:10120000E607E30D0730E2000A30E607E503031CBA
:101210000529E507E403031C0929E407E303031C8C
:101220000D29E307E203031C1129623084008317B0
:1012300007306705671384036705031D2629671AAE
:10124000840A671A26292030F7004329840766306C
:101250000402031967170008F700031D3729671BED
:101260003729671A5529E719372920304229E71FFE
:101270003F292D30F70084036713E7134329E7154F
:1012800067123030F707E1010408E0006110831BAA
:1012900061147708E9008A1103137B208A1503176C
:1012A00060088400831361188317840A671F272945
:0812B00003138A110A16D22E65
:10200000840183131F308305713083168F000F08FE
:102010000510831205142E132E08831687008312D1
:102020000717831603170908C039890003131F1205
:102030009F120030031788008312870188018901ED
:102040000313A801A901FF30AE002F10AF146430B4
:10205000B0002F115530B100B201AF11B301B4017E
:10206000B501B6012F12C701C8018316A001A10155
:10207000A201A301A401A501A601A701A801A9012C
:10208000AA01AB01AC01AD01AE01AF01B001B101DC
:10209000B201B301B401B501B601B701B801B9018C
:1020A000BA01BB01BC01BD01BE01BF01C001C1013C
:1020B000C201C301C401C501C601C701C801C901EC
:1020C000CA01CB01CC01CD01CE01CF01D001D1019C
:1020D000D201D301D401D501D601D701D801D9014C
:1020E000DA01DB01DC01DD01DE01DF01E001E101FC
:1020F000E201E301E401E501E601E701E801E901AC
:10210000EA018312C9018316EB0104308312B30084
:10211000831697018312031787018801890103132E
:102120009001031705100730F700F71DA2280730AC
:10213000031381018130840083130008C0390F38F4
:10214000800003176400813084000008C0397704E0
:1021500080000313B501B60104300317DB00FA3029
:10216000E1000A12031365280A160317DB0BAF28D8
:102170000313AF112F12FB3083168600FF3085004A
:1021800083121F179F1783169F1383121F14831622
:1021900003170908C039890003131F129F1210305A
:1021A00003178800F800831203131F08C33978044B
:1021B0009F0076300317E9000A1203137B200A16EA
:1021C0000317DB015B080A12031333200A160317F7
:1021D000DB0AF700E9000A1203137B200A16043019
:1021E00003175B02031DE22803132E112E0883162A
:1021F0008700831207110C30970083169B0183120E
:102200002E112E0883168700831207110C309700B9
:1022100083169B0106309D007B309500811383124D
:102220008B16C0308B04831606148312061C1D29DE
:1022300083168615831286191A2FFF30831686009F
:102240008312C801C701AF19392BC808031D392BE8
:102250004708043C031C392B0A12A1200A167808EF
:10226000C9004908243C031D362B0A12A1200A1676
:102270007808C9004908473C031D362B0A12A120E3
:102280000A167808C9004908503C031D362B0A126B
:10229000A1200A167808C9004908523C031D362BB4
:1022A0000A12A1200A167808C90049084D3C031DEE
:1022B000362B0A12A1200A167808C9004908433CA7
:1022C000031D362B0A12A1200A167808C9004908F6
:1022D0002C3C031D362B8316EB01831249080D3C61
:1022E000031983290A12A1200A167808C900A03010
:1022F00083166B07840083138312490880008316BA
:10230000EB0A6D29831283162B08413C031D372BE2
:102310008312B4013408013C031CA929103034078E
:102320000317DB000130DC000318DC0A0D30031357
:102330003407A03E8400831300080317DE005B0807
:10234000840083135C1883175E0880000313B40AAB
:102350008A2901300317E1001030E0000A1203134C
:102360007D230A167A088316EF007908EE007808B4
:10237000ED007708EC008312B4013408063C031C1E
:10238000DC291A3034070317DB000130DC000318A6
:10239000DC0A0F3003133407A03E840083130008C7
:1023A0000317DE005B08840083135C1883175E0844
:1023B00080000313B40ABD2901300317E1001A306D
:1023C000E0000A1203137D230A167A080317B700E8
:1023D0007908B6007808B5007708B4003708831686
:1023E000AD00831236088316AC00831235088316BD
:1023F000AB00831234088316AA00B101B00170301B
:10240000AF008430AE000A1283120313AF220A1603
:10241000831083166F080317B30003136E080317A6
:10242000B20003136D080317B10003136C08031700
:10243000B0007A08B7007908B6007808B5007708C8
:10244000B4000A128312031365210A167A08C20027
:102450007908C1007808C0007708BF0083163708E4
:10246000533C031D5E2A8312420883160317B100F2
:1024700083120313410883160317B000831203135A
:10248000400883160317AF00831203133F08831617
:102490000317AE00B501B4018030B3007F30B20045
:1024A0000A1283120313CB200A167A08C200790895
:1024B000C1007808C0007708BF0083168312B401FA
:1024C0003408023C031C7F2A203034070317DB004A
:1024D0000130DC000318DC0A193003133407A03E76
:1024E0008400831300080317DE005B088400831355
:1024F0005C1883175E0880000313B40A602A013059
:102500000317E1002030E0000A1203137D230A16AE
:102510007A080317B3007908B2007808B100770889
:10252000B0000313B4013408063C031CB22A2A305D
:1025300034070317DB000130DC000318DC0A1C3011
:1025400003133407A03E8400831300080317DE0042
:102550005B08840083135C1883175E0880000313F4
:10256000B40A932A01300317E1002A30E0000A126E
:1025700003137D230A167A080317BB007908BA00F3
:102580007808B9007708B8003B088316AD008312BD
:102590003A088316AC00831239088316AB00831205
:1025A00038088316AA00B101B0017030AF00843042
:1025B000AE000A1283120313AF220A168310031708
:1025C00033088316B300831232088316B2008312D5
:1025D00031088316B100831230088316B0007A08E0
:1025E000B7007908B6007808B5007708B4000A1279
:1025F0008312031365210A167A08C6007908C500FC
:102600007808C4007708C30083164408573C031DAC
:10261000342B8312460883160317B1008312031369
:10262000450883160317B00083120313440883166A
:102630000317AF0083120313430883160317AE007A
:10264000B501B4018030B3007F30B2000A128312AA
:102650000313CB200A167A08C6007908C50078084B
:10266000C4007708C30083168312AF158316831244
:102670002329AF1DFD2E8316061483120618D82EAB
:10268000353083160317B100FA30B0000E30AF00BA
:102690007930AE00831203133A0883160317B5008E
:1026A00083120313390883160317B400831203132C
:1026B000380883160317B3008312031337088316F1
:1026C0000317B2000A1283120313CB200A167708ED
:1026D0000317DB007808DC007908DD007A08DE00EB
:1026E000E7005D08E6005C08E5005B08E4000A120C
:1026F00003135A250A167A080317CF007908CE006B
:102700007808CD007708CC008316B1018030B00086
:102710006730AF008930AE0083124F088316B500D2
:1027200083124E088316B40083124D088316B3003B
:1027300083124C088316B2000A1283120313CB20B3
:102740000A167A080317E7007908E6007808E5001A
:102750007708E4000A12031379270A167A08031788
:10276000BF007908BE007808BD007708BC003F08AC
:102770008316930083123E088316920083123D084D
:102780008316910083123C088316900097019601EE
:1027900095013C3094000A12831203139A270A16FB
:1027A0007A080317BF007908BE007808BD007708D3
:1027B000BC003F08E9003E08E8003D08E7003C088F
:1027C000E6000A120313C8270A167A0883160317AD
:1027D000B1007908B0007808AF007708AE00831226
:1027E00003133E0883160317B500831203133D0835
:1027F00083160317B400831203133C0883160317D0
:10280000B300831203133B0883160317B2000A12A6
:1028100083120313CB200A167A080317E7007908FE
:10282000E6007808E5007708E4000A120313792728
:102830000A167A080317BF007908BE007808BD00A1
:102840007708BC0003133A0883160317B1008312FC
:102850000313390883160317B000831203133808D3
:1028600083160317AF008312031337088316031769
:10287000AE00B501B4017030B3008430B2000A126A
:1028800083120313CB200A1677080317DB0078089E
:10289000DC007908DD007A08DE008316B1008312BF
:1028A0005D088316B00083125C088316AF008312A4
:1028B0005B088316AE00B5018030B4006730B3000A
:1028C0008930B2000A1283120313CB200A167A0849
:1028D0000317E7007908E6007808E5007708E400C8
:1028E0000A12031379270A167A080317C300790816
:1028F000C2007808C1007708C00035308316B100E7
:10290000FA30B0000E30AF007930AE0083120313FE
:10291000420883160317B500831203134108831678
:102920000317B40083120313400883160317B30080
:10293000831203133F0883160317B2000A1283128F
:102940000313CB200A1677080317DB007808DC0096
:102950007908DD007A08DE00E7005D08E6005C0823
:10296000E5005B08E4000A1203135A250A167A08E8
:102970000317D3007908D2007808D1007708D00077
:102980008316B1018030B0006730AF008930AE00EF
:10299000831253088316B500831252088316B400BD
:1029A000831251088316B300831250088316B200B5
:1029B0000A1283120313CB200A167A080317E700C2
:1029C0007908E6007808E5007708E4000A120313A6
:1029D00079270A167A080317C7007908C60078080D
:1029E000C5007708C4004708831693008312460881
:1029F00083169200831245088316910083124408BF
:102A0000831690009701960195013C3094000A12BC
:102A1000831203139A270A167A080317C700790846
:102A2000C6007808C5007708C4004708E9004608D2
:102A3000E8004508E7004408E6000A120313C82727
:102A40000A167A0883160317B1007908B0007808CF
:102A5000AF007708AE0083120313460883160317EE
:102A6000B50083120313450883160317B4008312BD
:102A70000313440883160317B30083120313430898
:102A800083160317B2000A1283120313CB200A160F
:102A90007A080317E7007908E6007808E500770868
:102AA000E4000A12031379270A167A080317C700ED
:102AB0007908C6007808C5007708C40003134208E7
:102AC00083160317B10083120313410883160317FB
:102AD000B00083120313400883160317AF0083125C
:102AE00003133F0883160317AE00B501B40170301D
:102AF000B3008430B2000A1283120313CB200A16EB
:102B000077080317DB007808DC007908DD007A0815
:102B1000DE008316B10083125D088316B0008312B5
:102B20005C088316AF0083125B088316AE00B50104
:102B30008030B4006730B3008930B2000A128312CB
:102B40000313CB200A167A080317E7007908E6007A
:102B50007808E5007708E4000A12031379270A16BB
:102B60007A080317CB007908CA007808C9007708EB
:102B7000C8003C084402DB004508DC003D08031C9B
:102B80003D0FDC024608DD003E08031C3E0FDD025F
:102B90004708DE003F08031C3F0FDE023C084402EA
:102BA000F7004508F8003D08031C3D0FF8024608F1
:102BB000F9003E08031C3E0FF9024708FA003F08DF
:102BC000031C3F0FFA027A08E2007908E100780856
:102BD000E0007708DF005E088316930083125D082B
:102BE0008316920083125C088316910083125B089F
:102BF000831690008312620883169700831261087F
:102C000083169600831260088316950083125F086E
:102C1000831694000A12831203139A270A167A085D
:102C20000317DF007908DE007808DD007708DC0094
:102C300040084802E0004908E1004108031C410F38
:102C4000E1024A08E2004208031C420FE2024B087C
:102C5000E3004308031C430FE30240084802F70067
:102C60004908F8004108031C410FF8024A08F9001E
:102C70004208031C420FF9024B08FA004308031CE8
:102C8000430FFA027A08E7007908E6007808E500C1
:102C90007708E400630883169300831262088316A2
:102CA00092008312610883169100831260088316D4
:102CB00090008312670883169700831266088316B4
:102CC00096008312650883169500831264088316A4
:102CD00094000A12831203139A270A1603175C083A
:102CE000F7075D0803185D0FF8075E0803185E0F0D
:102CF000F9075F0803185F0FFA077A08E9007908F7
:102D0000E8007808E7007708E6000A120313C827EE
:102D10000A1677080317E1007808E2007908E30053
:102D20007A08E400ED006308EC006208EB0061083B
:102D3000EA000A128A15031300280A168A117A0873
:102D40000317D7007908D6007808D5007708D40093
:102D500057088316AD00831256088316AC00831201
:102D600055088316AB00831254088316AA000A1272
:102D70008312031337250A1679080317D900780838
:102D8000D8007630E9000A1203137B200A161030AF
:102D9000840003175908E1005808E0000A128A1558
:102DA0000313D4280A168A113C30B5002F12AF1134
:102DB0008316861583128619FC2E4208BA00410834
:102DC000B9004008B8003F08B7004608BE004508F3
:102DD000BD004408BC004308BB0076300317E9007F
:102DE0000A1203137B200A1630300317E9000A1277
:102DF00003137B200A16AF11192F76300317E90051
:102E00000A1203137B200A1645300317E9000A1241
:102E100003137B200A1672300317E9000A1203130A
:102E20007B200A1672300317E9000A1203137B2075
:102E30000A16512F9F149F181B2F1E08B20031082D
:102E40003202031C4D2F3208993C0318292F9A3067
:102E5000B2003208703C031C2F2F7030B2005C307F
:102E60003202F700F70DF70DFC30F70577082C3C20
:102E7000B0000030F8000638920030088316920047
:102E800003108312300C0317DA005A08031395005D
:102E9000FB3083168600502F8312FF308316860086
:062EA000831213296300F8
:04400E00C52FFF3F7C
:00000001FF
;PIC16F886
